:1000000063C024C27CC046C17AC079C078C077C0C2
:1000100062C175C074C0BAC0EEC0E3C070C06FC02A
:100020006EC0BCC66CC0E3C6CDC6CCC6CBC6CAC605
:10003000C9C6C8C6C7C6DBC6C5C6C4C6C3C6C2C64F
:10004000C1C6C0C6BFC6D5C6BDC6BCC6BBC6BAC67D
:10005000B9C6B8C6B7C6B6C6B5C6B4C6B3C6B2C6C4
:10006000B1C6B0C6AFC6C5C6ADC6ACC6ABC6AAC6DD
:10007000A9C6A8C6A7C6A6C6A5C6A4C6A3C6A2C624
:10008000A1C6A0C69FC6D6C69DC69CC69BC69AC61C
:1000900099C698C697C6E7C695C694C693C692C633
:1000A00091C690C68FC68EC68DC68CC68BC68AC6B4
:1000B00089C688C687C6C1C685C684C683C682C6A9
:1000C00081C680C67FC6A7C611241FBECFE5D4E077
:1000D000DEBFCDBF10E0A0E6B0E0E6E7FEE002C084
:1000E00005900D92A637B107D9F710E0A6E7B0E06A
:1000F00001C01D92A83DB107E1F759D2BAC680CF21
:10010000089510BC83E389B988ED8AB986E880BD7B
:10011000089590918700E6E7F0E0E90FF11D8083F4
:10012000809187008F5F80938700809187008F7018
:1001300080938700809188008F5F80938800089566
:100140008091AB0008958091AB008823E1F0E091AD
:10015000A900F0E0E757FF4FE0818091A9008F5F91
:100160008093A9008091A9008F718093A90080914C
:10017000AB0081508093AB008091AB008F3108F4CD
:1001800094988E2F0895E0E08E2F08951F920F927D
:100190000FB60F9211248F93EF93FF938CB1E091E0
:1001A000AA00F0E0E757FF4F80838091AA008F5F9D
:1001B0008093AA008091AA008F718093AA008091F9
:1001C000AB008F5F8093AB008091AB008F3109F45F
:1001D000949AFF91EF918F910F900FBE0F901F9007
:1001E00018951F920F920FB60F9211240F900FBE09
:1001F0000F901F9018951F920F920FB60F92112417
:100200008F93EF93FF93809188008823F1F0E09122
:100210008600F0E0EA58FF4F80818CB9809186001B
:100220008F5F80938600809186008F708093860018
:1002300080918800815080938800FF91EF918F9189
:100240000F900FBE0F901F90189555985D9AFF91D3
:10025000EF918F910F900FBE0F901F901895DC01BA
:100260008D91E0918700F0E0EA58FF4F8083809104
:1002700087008F5F80938700809187008F708093C5
:100280008700809188008F5F80938800615041F7DC
:10029000559A08951F920F920FB60F9211248F93C3
:1002A0008091D6008F5F8093D6008091D5008260C8
:1002B0008093D5008091D600843039F41092D60016
:1002C0008091D50081608093D5008F910F900FBEF3
:1002D0000F901F9018951F920F920FB60F92112436
:1002E0008F939F938091D20090E09BBD8ABD9F9198
:1002F0008F910F900FBE0F901F901895B29905C067
:100300008091C30082608093C300879905C080916B
:10031000C30081608093C3008091C3008C708C30D7
:1003200009F463C08091C300880F880F8C7080939C
:10033000C300869905C08091CC0082608093CC0078
:10034000859905C08091CC0081608093CC0080911C
:10035000CC008C708C3099F18091CC00880F880F84
:100360008C708093CC009A9905C08091C600826001
:100370008093C6009B9905C08091C60081608093E0
:10038000C6008091C6008C708C3041F08091C60010
:10039000880F880F8C708093C60008958091C600E6
:1003A00083708093C6008091C6008130D9F180911E
:1003B000C600823059F788E08093B100E7CF809182
:1003C000CC0083708093CC009091CC009130F9F0F8
:1003D0009091CC00923009F0BFCF8091CD0086FF84
:1003E0001AC080E28093B100B7CF8091C3008370C0
:1003F0008093C3008091C300813081F08091C3005D
:10040000823009F08FCF80E88093B1008BCF80914C
:10041000CD0086FD0BC09093B1009ECF80E4809309
:10042000B10080CF84E08093B100B0CF80E18093B1
:10043000B10092CFFB016115710519F080818C34F8
:1004400009F0089581818093D20008951F920F9240
:100450000FB60F9211242F933F934F935F936F9397
:100460007F938F939F93AF93BF93EF93FF93DF930C
:10047000CF930F92CDB7DEB787E58983CE01019682
:1004800061E0EDDE0F90CF91DF91FF91EF91BF9191
:10049000AF919F918F917F916F915F914F913F911C
:1004A0002F910F900FBE0F901F901895FF920F93F2
:1004B0001F93DF93CF9300D0CDB7DEB71092D50056
:1004C0001092D6001092C3001092CC001092C60079
:1004D00010E81093D2001092CF001092CE0010922C
:1004E000CD001092D4001092D3001092C8008FEF6C
:1004F00084BB87BB81BB15BA18BA12BA949A84B36D
:10050000827F84BB81B38B7181BBBA9885B38C60C9
:1005100085BB82B3806E82BBC29AC19AF2DDE3D3FF
:1005200098E095BD8AEF83BD19BF81EC8FBD9EBD5C
:1005300089B7846089BF8091D20090E09BBD8ABD5D
:10054000789485B5846085BD8EB583608EBD8091BD
:10055000D50080618093D50080E48983FF24FA94DC
:10056000FA828E010F5F1F4FC80162E0CCD382E494
:100570008983FA82C80162E0C6D384E48983FA825F
:10058000C80162E0C0D386E48983FA82C80162E0D0
:10059000BAD388E48983FA82C80162E0B4D30F90A9
:1005A0000F90CF91DF911F910F91FF9008952F929F
:1005B0003F924F925F926F927F928F929F92AF92F3
:1005C000BF92CF92DF92EF92FF920F931F93DF9330
:1005D000CF93CDB7DEB763970FB6F894DEBF0FBEEB
:1005E000CDBFB5E0AB2EB12CAC0EBD1E8FE0F5013A
:1005F00011928A95E9F71A82198258DF94986E0150
:100600000894C11CD11CA3E06A2E712C6C0E7D1EB7
:10061000F8E08F2EE4E05E2E70E2472E60E1362E89
:1006200050E8252E41E4942E829B34C0F8948091AA
:10063000CD00807C8093CD008091CD008F7780931A
:10064000CD001092CF001092CE001092B200109206
:10065000B3001092B4001092B5001092B600109240
:10066000B70085B78C7F85BF8BB780648BBF8EB595
:10067000887F8EBDC19A85B78F78806685BF85B724
:10068000806885BF789488958BB780748BBF85B759
:100690008F7785BF8091D700882309F475C1809139
:1006A000D50081FD0BC18091D50080FFF9C09982F2
:1006B0001A82C60162E027D3C60162E053D38A8161
:1006C000809500E010E0F801E455FF4F80830F5F54
:1006D0001F4F05301105BCF4C8018096880F991F83
:1006E000816089831A82C60162E00DD3C60162E08F
:1006F00039D38A8180950430110529F786FFE3CF2D
:100700008F7B8093B0008091AD0085FF6AC180919E
:10071000CD0087FD24C28091CD0080688093CD00FC
:100720008091AF0087FD6FC18091AF0090E08F7026
:1007300090709093D4008093D3008091D3009091D7
:10074000D400982F88279093D4008093D300809171
:10075000AE002091D3003091D40090E0822B932BF7
:100760009093D4008093D3008091C800807C8093C4
:10077000C8008091B0009091C8008F73892B80933E
:10078000C8002091CE003091CF008091D30090918D
:10079000D4002817390709F482C18091D3009091C1
:1007A000D4009093CF008093CE008091CD00209113
:1007B000C80090E08F73907030E08217930709F4BF
:1007C00056C18091CD00807C8093CD009091CD006A
:1007D0008091C800892B8093CD008091AF0087FD68
:1007E00053C18091D500877F8093D5009091AC0054
:1007F0008091B200981729F08091D5008460809391
:10080000D5008091AC008093B2009091AD008091B2
:10081000B300981729F08091D50084608093D500AB
:100820008091AD008093B3009091AE008091B400B0
:10083000981729F08091D50084608093D50080912D
:10084000AE008093B4009091AF008091B5009817EE
:1008500029F08091D50084608093D5008091AF000D
:100860008093B5009091B0008091B600981729F060
:100870008091D50084608093D5008091B0008093F2
:10088000B6009091B1008091B700981729F080913F
:10089000D50084608093D5008091B1008093B7002B
:1008A000829904C08091D50082FDC2C01092D70009
:1008B0008091D5008E7F8093D500B6CEB29905C0C9
:1008C0008091C30082608093C300879905C08091A6
:1008D000C30081608093C3008091C3008C708C3012
:1008E00009F411C18091C300880F880F8C70809328
:1008F000C300869905C08091CC0082608093CC00B3
:10090000859905C08091CC0081608093CC00809156
:10091000CC008C708C3009F4E0C08091CC00880F42
:10092000880F8C708093CC009A9905C08091C60086
:1009300082608093C6009B9905C08091C60081604B
:100940008093C6008091C6008C708C3009F4B3C0CF
:100950008091C600880F880F8C708093C60090919C
:10096000B7008091B100981729F08091D50084607C
:100970008093D5008091B1008093B7008091D5001D
:100980008D7F8093D5008FCEDBDB882309F0CDC02F
:100990009091D700192F1F70812F81508F3050F008
:1009A00096FF7DCE8D818C3409F079CE8E81809337
:1009B000D20075CEC5DB8117E8F3E12EFF24E114E8
:1009C000F10461F000E010E0BEDBF501E00FF11F83
:1009D00080830F5F1F4F0E151F05B4F39091D70052
:1009E000DFCF8091CD0087FF9BCE8091AD008062EC
:1009F0008093AD008091CD008F778093CD00809162
:100A0000AF0087FF91CE8091D50083FD8DCE809180
:100A1000CD0086FDC0C088E48B83EFEBEC83C3017F
:100A200062E071D18091CD0080648093CD007CCE56
:100A3000E6E2E093D70087ED90E061E010DC8CEA1D
:100A400090E066E00CDC1092D7001092AC0010929F
:100A5000AD001092AE001092AF001092B000109254
:100A6000B1008091D5008B7F8093D5001FCF8091FE
:100A7000C80080FF5EC08091B0008E7F8093B00080
:100A80008091AF0087FFADCE8091AF008F778093CC
:100A9000AF008091D50088608093D500A7CE80916B
:100AA000D3009091D40080FF4EC08091AE008E7F25
:100AB0008093AE007ACE8091C60083708093C6008A
:100AC0008091C600813009F473C08091C6008230E5
:100AD00009F03ECF8092B1003BCF8091CC00837073
:100AE0008093CC009091CC00913009F464C0909137
:100AF000CC00923009F011CF8091CD0086FF66C006
:100B00004092B1000ACF8091C30083708093C300EC
:100B10008091C300813009F455C08091C3008230B8
:100B200009F0E0CE2092B100DDCE0DDB8093D7003E
:100B30002FCF8091C80081FF18C08091B0008D7FB9
:100B40008093B0004ACE8091D3009091D40081FF71
:100B500016C08091AE008D7F8093AE0026CE80912E
:100B6000AD008F7D8093AD00DBCD8091C80082FF0A
:100B700030C08091B0008B7F8093B0002ECE8091EA
:100B8000D3009091D40082FF2EC08091AE008B7F65
:100B90008093AE000ACEF8E4FB838FEF8C83C30111
:100BA00062E0B1D08091CD008F7B8093CD00BCCD31
:100BB0005092B100CDCE8091CD0086FF07C030921B
:100BC000B100ABCEF0E4F093B1008CCE9093B100C5
:100BD000A4CE8091C80083FF12C08091B000877FAF
:100BE0008093B000FACD8091D3009091D40083FF20
:100BF00010C08091AE00877F8093AE00D6CD8091EB
:100C0000C80084FF12C08091B0008F7E8093B00036
:100C1000E4CD8091D3009091D40084FF10C08091E6
:100C2000AE008F7E8093AE00C0CD8091C80085FF5E
:100C3000D4CD8091B0008F7D8093B000CECD8091D7
:100C4000D3009091D40085FF06C08091AE008F7DC7
:100C50008093AE00AACD8091D3009091D40086FFFE
:100C600006C08091AE008F7B8093AE009ECD8091B8
:100C7000D3009091D40087FF06C08091AE008F779B
:100C80008093AE0092CD8091D3009091D40090FFDC
:100C900006C08091AF008E7F8093AF0086CD80919B
:100CA000D3009091D40091FF06C08091AF008D7F5A
:100CB0008093AF007ACD8091D3009091D40092FFC1
:100CC00006C08091AF008B7F8093AF006ECD809186
:100CD000D3009091D40093FF68CD8091AF00877FBF
:100CE0008093AF0062CD8CE080B98FEF83B984E050
:100CF00086BF089586B78170089506B600FCFDCFC3
:100D0000809175000895FC0106B600FCFDCF60934C
:100D1000C20080818093BA0080FD11C0623078F0FB
:100D2000DF01EBEBF0E0625070E064547F4F11960E
:100D30008C91119781931196E617F707C1F71092DE
:100D4000B80088EF8093750085EA86BF089506B6DF
:100D500000FCFDCF1092B80088EF8093750085EA03
:100D600086BF0895AC0106B600FCFDCF8091B800A7
:100D700080FF12C0662381F020E030E0FA01E20F2C
:100D8000F31FD901A654BF4F8C9180832F5F3F4F33
:100D90002617A0F38091B800817008951F920F92DA
:100DA0000FB60F9211242F933F938F939F93AF937E
:100DB000BF93EF93FF9381B190E0FC013897E13549
:100DC000F10590F081B18093750084E086BFFF91BA
:100DD000EF91BF91AF919F918F913F912F910F9084
:100DE0000FBE0F901F901895ED5EFF4F0994109263
:100DF000B9009091B9008091C200981798F4E92F3A
:100E0000F0E0E654FF4F808183B99F5F9093B90073
:100E100085E886BFDCCF83B1E091B900F0E0E6540D
:100E2000FF4F80838091B80081608093B80084E98F
:100E300086BFCDCF85EA86BFCACF2091B90083B1E6
:100E4000E22FF0E0E654FF4F80832F5F2093B9003C
:100E500030E08091C20090E001972817390734F400
:100E600085EC86BFB4CF2091B900F2CF85E886BF6C
:060E7000AECFF894FFCFA5
:100E76005465737420537472696E67007706D3D60F
:060E8600A6F4F516BFF80A
:00000001FF
