:1000000012C031C12BC0FBC029C028C027C026C0E8
:1000100017C124C023C08BC0BFC0B4C01FC01EC046
:100020001DC036C51BC011241FBECFE5D4E0DEBF06
:10003000CDBF10E0A0E6B0E0E4E7FBE002C0059031
:100040000D92A637B107D9F710E0A6E7B0E001C0DE
:100050001D92A93DB107E1F731D28AC5D1CF0895EC
:1000600010BC83E389B91092880081E08093AC00D2
:1000700088ED8AB986E880BD089590918700E6E70B
:10008000F0E0E90FF11D8083809187008F5F8093FE
:100090008700809187008F7080938700809188000F
:1000A0008F5F8093880008958091AB0008951F931F
:1000B000CF93DF93EC01162F1092AC008991DDDF16
:1000C0001150E1F7559ADF91CF911F9108958091DA
:1000D000AB00882311F4E0E01AC0E091A900F0E041
:1000E000E757FF4FE0818091A9008F5F8093A900BF
:1000F0008091A9008F718093A9008091AB008150FD
:100100008093AB008091AB008F3108F494988E2FD0
:1001100008958091AC00813011F090E006C080918C
:10012000880090E0882309F491E0892F08951F92B8
:100130000F920FB60F9211248F93EF93FF938CB110
:10014000E091AA00F0E0E757FF4F80838091AA007A
:100150008F5F8093AA008091AA008F718093AA007C
:100160008091AB008F5F8093AB008091AB008F31AB
:1001700009F4949AFF91EF918F910F900FBE0F9019
:100180001F9018951F920F920FB60F9211240F9087
:100190000FBE0F901F9018951F920F920FB60F92DF
:1001A00011248F93EF93FF9380918800882339F473
:1001B000559881E08093AC0080E28BB918C0109212
:1001C000AC00E0918600F0E0EA58FF4F80818CB9E6
:1001D000809186008F5F80938600809186008F706B
:1001E0008093860080918800815080938800FF91E1
:1001F000EF918F910F900FBE0F901F9018951F9247
:100200000F920FB60F9211248F938091D7008F5FBA
:100210008093D7008091D60082608093D600809131
:10022000D700843039F41092D7008091D6008160D5
:100230008093D6008F910F900FBE0F901F9018954E
:100240001F920F920FB60F9211248F939F9380915C
:10025000D30090E09BBD8ABD9F918F910F900FBE00
:100260000F901F9018951F920F920FB60F921124A6
:100270008F939F9380E48ABF8BB78F7B8BBF9498BB
:100280008091D30090E09BBD8ABD8091D6008068AC
:100290008093D6001092D7009F918F910F900FBE40
:1002A0000F901F901895B29905C08091C40082608C
:1002B0008093C400879905C08091C40081608093B9
:1002C000C4008091C4008C708C3091F48091C40083
:1002D00083708093C4008091C400813011F480E465
:1002E00005C08091C400823019F480E88093B20088
:1002F0008091C400880F880F8C708093C400869909
:1003000005C08091CD0082608093CD00859905C0A5
:100310008091CD0081608093CD008091CD008C7064
:100320008C30E9F48091CD0083708093CD00909162
:10033000CD00913031F48091CE0086FF0EC080E177
:1003400009C09091CD00923051F48091CE0086FF8B
:1003500004C080E28093B20002C09093B20080910A
:10036000CD00880F880F8C708093CD009A9905C0BE
:100370008091C70082608093C7009B9905C08091DF
:10038000C70081608093C7008091C7008C708C305B
:1003900091F48091C70083708093C7008091C7005B
:1003A000813011F484E005C08091C700823019F4D7
:1003B00088E08093B2008091C700880F880F8C700E
:1003C0008093C7000895FB016115710531F08081AC
:1003D0008C3419F481818093D3000895EF92FF92B9
:1003E0000F931F93DF93CF9300D0CDB7DEB710925A
:1003F000D6001092D7001092C4001092CD00109237
:10040000C7001092D80010E81093D3001092D000CB
:100410001092CF001092CE001092D5001092D4000E
:100420001092C9008FEF84BB87BB81BB15BA18BA85
:1004300012BA84B3827F84BB81B38B7181BBBA98BB
:1004400085B38C6085BB82B3806E82BBC29A949A5E
:10045000C19A06DEC7D298E095BD8AEF83BD19BF69
:1004600081E08FBD9EBD89B7846089BF789485B5D2
:10047000846085BD8EB583608EBD8FB5806C8FBD69
:100480008091D60080618093D60010E20FEF7E014C
:100490000894E11CF11C812F880F89830A83C7010E
:1004A00062E0B0D21F5F1532B1F70F900F90CF917D
:1004B000DF911F910F91FF90EF9008954F925F92FF
:1004C0006F927F928F929F92AF92BF92CF92DF9264
:1004D000EF92FF920F931F93DF93CF93CDB7DEB7C9
:1004E00064970FB6F894DEBF0FBECDBF8E010B5FD1
:1004F0001F4F8FE0F80111928A95E9F71A8219824D
:100500006DDF80EA9FE00197F1F7949858014E0162
:100510000894811C911C73E0C72ED12CCC0EDD1EDB
:1005200068E4762E66246A945FEB552E46E2442EEC
:10053000829B41C08091CE00807C8093CE008091D0
:10054000CE008F778093CE001092D0001092CF0013
:100550001092B3001092B4001092B5001092B60041
:100560001092B7001092B800D4DD8823E9F38EB55D
:10057000887F8EBD8FB58F738FBDC19A1092D600C4
:10058000949A9FB7F89485B78C7F85BF8BB78064AA
:100590008BBF85B78F78806285BF85B7806885BF40
:1005A0009FBF889585B78F7785BF86B78B7E86BFBF
:1005B00086B7846086BF8091D800882341F574DDBA
:1005C000882319F084DD8093D8009091D8009F7023
:1005D000892F81508F3088F49C8B66DD9C89891728
:1005E000D8F385017501E90EF11C04C070DDF80136
:1005F00081938F010E151F05C9F78091D80086FFE2
:1006000006C08D818C3419F48E818093D300809143
:10061000D60081FF15C047DE9091B8008091B200EE
:10062000981729F08091D60084608093D60080913D
:10063000B2008093B8008091D6008D7F8093D60061
:100640008091D60080FF94C100E010E0C801809640
:10065000880F991F816089831A82C40162E0D2D118
:10066000C40162E0FAD18A8180950430110509F451
:100670008F7BF801E355FF4F80830F5F1F4F0530DD
:10068000110521F78091AE0085FF0EC08091CE004C
:1006900087FD04C08091CE00806812C08091AE00BA
:1006A0008F7D8093AE000EC08091CE0087FF0AC080
:1006B0008091AE0080628093AE008091CE008F77F3
:1006C0008093CE008091B00087FF1BC08091D60040
:1006D00083FD17C08091CE0086FD09C07B825C82BD
:1006E000C60162E08FD18091CE00806408C07B8219
:1006F0006C82C60162E086D18091CE008F7B8093B0
:10070000CE008091B00090E08F7090709093D500F3
:100710008093D4008091D4009091D500982F8827A1
:100720009093D5008093D4002091D4003091D500CF
:100730008091AF0090E0822B932B9093D500809313
:10074000D4008091C900807C8093C9009091C90039
:100750008091B1008F73892B8093C9002091CF00C5
:100760003091D0008091D4009091D500281739079E
:1007700009F07CC08091D4009091D50080FF04C026
:100780008091AF008E7F09C08091D4009091D500F8
:1007900081FF06C08091AF008D7F8093AF006EC057
:1007A0008091D4009091D50082FF04C08091AF0069
:1007B0008B7FF3CF8091D4009091D50083FF04C04C
:1007C0008091AF00877FE9CF8091D4009091D500D0
:1007D00084FF04C08091AF008F7EDFCF8091D40072
:1007E0009091D50085FF04C08091AF008F7DD5CF5B
:1007F0008091D4009091D50086FF04C08091AF0015
:100800008F7BCBCF8091D4009091D50087FF04C01F
:100810008091AF008F77C1CF8091D4009091D500A7
:1008200090FF04C08091B0008E7F1DC08091D400E5
:100830009091D50091FF04C08091B0008D7F13C0CE
:100840008091D4009091D50092FF04C08091B000B7
:100850008B7F09C08091D4009091D50093FF0EC08A
:100860008091B000877F8093B00008C08091D40051
:100870009091D5009093D0008093CF008091CE00CE
:100880002091C90090E08F73907030E08217930739
:1008900091F58091C90080FF04C08091B1008E7FE6
:1008A00007C08091C90081FF06C08091B1008D7F93
:1008B0008093B1002CC08091C90082FF04C0809158
:1008C000B1008B7FF5CF8091C90083FF04C0809178
:1008D000B100877FEDCF8091C90084FF04C0809173
:1008E000B1008F7EE5CF8091C90085FF10C0809157
:1008F000B1008F7DDDCF8091CE00807C8093CE00D3
:100900009091CE008091C900892B8093CE00809178
:10091000B00087FF0DC08091B0008F778093B0004A
:100920008091D60088608093D60020E030E004C03B
:100930008091D600877FF7CFF901E355FF4F908173
:10094000F901ED54FF4F8081981729F08091D6006E
:1009500084608093D600F901E355FF4F8081F9014F
:10096000ED54FF4F80832F5F3F4F2630310521F735
:10097000829930C08091D60082FF2CC08091D60031
:1009800084FD0BC08EB583608EBD8FB5806C8FBD2E
:100990008091D60080618093D6004092D80088ED87
:1009A00090E061E084DB8DEA90E066E080DB10920D
:1009B000D8001092AD001092AE001092AF001092CD
:1009C000B0001092B1001092B2008091D6008B7FDF
:1009D0008093D6001092D8008091D6008E7F8093AD
:1009E000D600A6CD8CE080B98FEF83B984E086BFB6
:1009F000089586B78170089506B600FCFDCF8091FA
:100A000075000895FC0106B600FCFDCF6093C3009D
:100A100080818093BB0080FD0DC04E2FACEBB0E019
:100A2000CF01FC0102C080818D9331968E2F841BF3
:100A30008617C8F31092B90088EF8093750085EA95
:100A400086BF089506B600FCFDCF1092B90088EF6E
:100A50008093750085EA86BF0895AC0106B600FC58
:100A6000FDCF8091B90080FF0FC020E030E00AC0C8
:100A7000FA01E20FF31FD901A554BF4F8C91808377
:100A80002F5F3F4F2617A0F38091B9008170089522
:100A90001F920F920FB60F9211242F933F938F93B3
:100AA0009F93EF93FF9381B18832C9F0893240F46C
:100AB000803199F0883199F0883009F049C00DC033
:100AC000803441F1813420F4883309F041C03EC0C4
:100AD0008035A9F08835E1F52BC01092BA009091CD
:100AE000BA008091C300981750F5E92FF0E0E55463
:100AF000FF4F808183B99F5F9093BA0017C08091A8
:100B0000BA0093B1E82FF0E0E554FF4F90838F5F78
:100B10008093BA002091BA0030E08091C30090E049
:100B200001972817390714F485EC16C085E814C01E
:100B300083B1E091BA00F0E0E554FF4F80838091EB
:100B4000B90081608093B90084E906C085EA04C0D9
:100B500081B18093750084E086BFFF91EF919F91F2
:100B60008F913F912F910F900FBE0F901F9018956E
:100B7000F894FFCF5465737420537472696E6700E4
:100B80007706D3D6A6F4F516BFF8FFFFFFFFFFFFE9
:100B9000FFFFFFFFFFFFFFFFFFFFFFFFFFFFFFFF65
:100BA000FFFFFFFFFFFFFFFFFFFFFFFFFFFFFFFF55
:100BB000FFFFFFFFFFFFFFFFFFFFFFFFFFFFFFFF45
:100BC000FFFFFFFFFFFFFFFFFFFFFFFFFFFFFFFF35
:00000001FF
